{
  "_format": "hh-sol-artifact-1",
  "contractName": "ERC20Verifier",
  "sourceName": "contracts/ERC20Verifier.sol",
  "abi": [
    {
      "inputs": [
        {
          "internalType": "string",
          "name": "name_",
          "type": "string"
        },
        {
          "internalType": "string",
          "name": "symbol_",
          "type": "string"
        }
      ],
      "stateMutability": "nonpayable",
      "type": "constructor"
    },
    {
      "anonymous": false,
      "inputs": [
        {
          "indexed": true,
          "internalType": "address",
          "name": "owner",
          "type": "address"
        },
        {
          "indexed": true,
          "internalType": "address",
          "name": "spender",
          "type": "address"
        },
        {
          "indexed": false,
          "internalType": "uint256",
          "name": "value",
          "type": "uint256"
        }
      ],
      "name": "Approval",
      "type": "event"
    },
    {
      "anonymous": false,
      "inputs": [
        {
          "indexed": true,
          "internalType": "address",
          "name": "previousOwner",
          "type": "address"
        },
        {
          "indexed": true,
          "internalType": "address",
          "name": "newOwner",
          "type": "address"
        }
      ],
      "name": "OwnershipTransferred",
      "type": "event"
    },
    {
      "anonymous": false,
      "inputs": [
        {
          "indexed": true,
          "internalType": "address",
          "name": "from",
          "type": "address"
        },
        {
          "indexed": true,
          "internalType": "address",
          "name": "to",
          "type": "address"
        },
        {
          "indexed": false,
          "internalType": "uint256",
          "name": "value",
          "type": "uint256"
        }
      ],
      "name": "Transfer",
      "type": "event"
    },
    {
      "inputs": [],
      "name": "TOKEN_AMOUNT_FOR_AIRDROP_PER_ID",
      "outputs": [
        {
          "internalType": "uint256",
          "name": "",
          "type": "uint256"
        }
      ],
      "stateMutability": "view",
      "type": "function"
    },
    {
      "inputs": [],
      "name": "TRANSFER_REQUEST_ID",
      "outputs": [
        {
          "internalType": "uint64",
          "name": "",
          "type": "uint64"
        }
      ],
      "stateMutability": "view",
      "type": "function"
    },
    {
      "inputs": [
        {
          "internalType": "address",
          "name": "",
          "type": "address"
        }
      ],
      "name": "addressToId",
      "outputs": [
        {
          "internalType": "uint256",
          "name": "",
          "type": "uint256"
        }
      ],
      "stateMutability": "view",
      "type": "function"
    },
    {
      "inputs": [
        {
          "internalType": "address",
          "name": "owner",
          "type": "address"
        },
        {
          "internalType": "address",
          "name": "spender",
          "type": "address"
        }
      ],
      "name": "allowance",
      "outputs": [
        {
          "internalType": "uint256",
          "name": "",
          "type": "uint256"
        }
      ],
      "stateMutability": "view",
      "type": "function"
    },
    {
      "inputs": [
        {
          "internalType": "address",
          "name": "spender",
          "type": "address"
        },
        {
          "internalType": "uint256",
          "name": "amount",
          "type": "uint256"
        }
      ],
      "name": "approve",
      "outputs": [
        {
          "internalType": "bool",
          "name": "",
          "type": "bool"
        }
      ],
      "stateMutability": "nonpayable",
      "type": "function"
    },
    {
      "inputs": [
        {
          "internalType": "address",
          "name": "account",
          "type": "address"
        }
      ],
      "name": "balanceOf",
      "outputs": [
        {
          "internalType": "uint256",
          "name": "",
          "type": "uint256"
        }
      ],
      "stateMutability": "view",
      "type": "function"
    },
    {
      "inputs": [],
      "name": "decimals",
      "outputs": [
        {
          "internalType": "uint8",
          "name": "",
          "type": "uint8"
        }
      ],
      "stateMutability": "view",
      "type": "function"
    },
    {
      "inputs": [
        {
          "internalType": "address",
          "name": "spender",
          "type": "address"
        },
        {
          "internalType": "uint256",
          "name": "subtractedValue",
          "type": "uint256"
        }
      ],
      "name": "decreaseAllowance",
      "outputs": [
        {
          "internalType": "bool",
          "name": "",
          "type": "bool"
        }
      ],
      "stateMutability": "nonpayable",
      "type": "function"
    },
    {
      "inputs": [],
      "name": "getSupportedRequests",
      "outputs": [
        {
          "internalType": "uint64[]",
          "name": "arr",
          "type": "uint64[]"
        }
      ],
      "stateMutability": "view",
      "type": "function"
    },
    {
      "inputs": [
        {
          "internalType": "uint64",
          "name": "requestId",
          "type": "uint64"
        }
      ],
      "name": "getZKPRequest",
      "outputs": [
        {
          "components": [
            {
              "internalType": "uint256",
              "name": "schema",
              "type": "uint256"
            },
            {
              "internalType": "uint256",
              "name": "slotIndex",
              "type": "uint256"
            },
            {
              "internalType": "uint256",
              "name": "operator",
              "type": "uint256"
            },
            {
              "internalType": "uint256[]",
              "name": "value",
              "type": "uint256[]"
            },
            {
              "internalType": "string",
              "name": "circuitId",
              "type": "string"
            }
          ],
          "internalType": "struct ICircuitValidator.CircuitQuery",
          "name": "",
          "type": "tuple"
        }
      ],
      "stateMutability": "view",
      "type": "function"
    },
    {
      "inputs": [
        {
          "internalType": "uint256",
          "name": "",
          "type": "uint256"
        }
      ],
      "name": "idToAddress",
      "outputs": [
        {
          "internalType": "address",
          "name": "",
          "type": "address"
        }
      ],
      "stateMutability": "view",
      "type": "function"
    },
    {
      "inputs": [
        {
          "internalType": "address",
          "name": "spender",
          "type": "address"
        },
        {
          "internalType": "uint256",
          "name": "addedValue",
          "type": "uint256"
        }
      ],
      "name": "increaseAllowance",
      "outputs": [
        {
          "internalType": "bool",
          "name": "",
          "type": "bool"
        }
      ],
      "stateMutability": "nonpayable",
      "type": "function"
    },
    {
      "inputs": [],
      "name": "name",
      "outputs": [
        {
          "internalType": "string",
          "name": "",
          "type": "string"
        }
      ],
      "stateMutability": "view",
      "type": "function"
    },
    {
      "inputs": [],
      "name": "owner",
      "outputs": [
        {
          "internalType": "address",
          "name": "",
          "type": "address"
        }
      ],
      "stateMutability": "view",
      "type": "function"
    },
    {
      "inputs": [
        {
          "internalType": "address",
          "name": "",
          "type": "address"
        },
        {
          "internalType": "uint64",
          "name": "",
          "type": "uint64"
        }
      ],
      "name": "proofs",
      "outputs": [
        {
          "internalType": "bool",
          "name": "",
          "type": "bool"
        }
      ],
      "stateMutability": "view",
      "type": "function"
    },
    {
      "inputs": [],
      "name": "renounceOwnership",
      "outputs": [],
      "stateMutability": "nonpayable",
      "type": "function"
    },
    {
      "inputs": [
        {
          "internalType": "uint64",
          "name": "",
          "type": "uint64"
        }
      ],
      "name": "requestQueries",
      "outputs": [
        {
          "internalType": "uint256",
          "name": "schema",
          "type": "uint256"
        },
        {
          "internalType": "uint256",
          "name": "slotIndex",
          "type": "uint256"
        },
        {
          "internalType": "uint256",
          "name": "operator",
          "type": "uint256"
        },
        {
          "internalType": "string",
          "name": "circuitId",
          "type": "string"
        }
      ],
      "stateMutability": "view",
      "type": "function"
    },
    {
      "inputs": [
        {
          "internalType": "uint64",
          "name": "",
          "type": "uint64"
        }
      ],
      "name": "requestValidators",
      "outputs": [
        {
          "internalType": "contract ICircuitValidator",
          "name": "",
          "type": "address"
        }
      ],
      "stateMutability": "view",
      "type": "function"
    },
    {
      "inputs": [
        {
          "internalType": "uint64",
          "name": "requestId",
          "type": "uint64"
        },
        {
          "internalType": "contract ICircuitValidator",
          "name": "validator",
          "type": "address"
        },
        {
          "components": [
            {
              "internalType": "uint256",
              "name": "schema",
              "type": "uint256"
            },
            {
              "internalType": "uint256",
              "name": "slotIndex",
              "type": "uint256"
            },
            {
              "internalType": "uint256",
              "name": "operator",
              "type": "uint256"
            },
            {
              "internalType": "uint256[]",
              "name": "value",
              "type": "uint256[]"
            },
            {
              "internalType": "string",
              "name": "circuitId",
              "type": "string"
            }
          ],
          "internalType": "struct ICircuitValidator.CircuitQuery",
          "name": "query",
          "type": "tuple"
        }
      ],
      "name": "setZKPRequest",
      "outputs": [
        {
          "internalType": "bool",
          "name": "",
          "type": "bool"
        }
      ],
      "stateMutability": "nonpayable",
      "type": "function"
    },
    {
      "inputs": [
        {
          "internalType": "uint64",
          "name": "requestId",
          "type": "uint64"
        },
        {
          "internalType": "uint256[]",
          "name": "inputs",
          "type": "uint256[]"
        },
        {
          "internalType": "uint256[2]",
          "name": "a",
          "type": "uint256[2]"
        },
        {
          "internalType": "uint256[2][2]",
          "name": "b",
          "type": "uint256[2][2]"
        },
        {
          "internalType": "uint256[2]",
          "name": "c",
          "type": "uint256[2]"
        }
      ],
      "name": "submitZKPResponse",
      "outputs": [
        {
          "internalType": "bool",
          "name": "",
          "type": "bool"
        }
      ],
      "stateMutability": "nonpayable",
      "type": "function"
    },
    {
      "inputs": [
        {
          "internalType": "uint256",
          "name": "",
          "type": "uint256"
        }
      ],
      "name": "supportedRequests",
      "outputs": [
        {
          "internalType": "uint64",
          "name": "",
          "type": "uint64"
        }
      ],
      "stateMutability": "view",
      "type": "function"
    },
    {
      "inputs": [],
      "name": "symbol",
      "outputs": [
        {
          "internalType": "string",
          "name": "",
          "type": "string"
        }
      ],
      "stateMutability": "view",
      "type": "function"
    },
    {
      "inputs": [],
      "name": "totalSupply",
      "outputs": [
        {
          "internalType": "uint256",
          "name": "",
          "type": "uint256"
        }
      ],
      "stateMutability": "view",
      "type": "function"
    },
    {
      "inputs": [
        {
          "internalType": "address",
          "name": "to",
          "type": "address"
        },
        {
          "internalType": "uint256",
          "name": "amount",
          "type": "uint256"
        }
      ],
      "name": "transfer",
      "outputs": [
        {
          "internalType": "bool",
          "name": "",
          "type": "bool"
        }
      ],
      "stateMutability": "nonpayable",
      "type": "function"
    },
    {
      "inputs": [
        {
          "internalType": "address",
          "name": "from",
          "type": "address"
        },
        {
          "internalType": "address",
          "name": "to",
          "type": "address"
        },
        {
          "internalType": "uint256",
          "name": "amount",
          "type": "uint256"
        }
      ],
      "name": "transferFrom",
      "outputs": [
        {
          "internalType": "bool",
          "name": "",
          "type": "bool"
        }
      ],
      "stateMutability": "nonpayable",
      "type": "function"
    },
    {
      "inputs": [
        {
          "internalType": "address",
          "name": "newOwner",
          "type": "address"
        }
      ],
      "name": "transferOwnership",
      "outputs": [],
      "stateMutability": "nonpayable",
      "type": "function"
    }
  ],
  "bytecode": "0x608060405262000014620000b960201b60201c565b60ff16600a6200002591906200031d565b60056200003391906200036e565b600c553480156200004357600080fd5b506040516200484c3803806200484c83398181016040528101906200006991906200054c565b818181600390816200007c919062000812565b5080600490816200008e919062000812565b505050620000b1620000a5620000c260201b60201c565b620000ca60201b60201c565b5050620008f9565b60006012905090565b600033905090565b6000600560009054906101000a900473ffffffffffffffffffffffffffffffffffffffff16905081600560006101000a81548173ffffffffffffffffffffffffffffffffffffffff021916908373ffffffffffffffffffffffffffffffffffffffff1602179055508173ffffffffffffffffffffffffffffffffffffffff168173ffffffffffffffffffffffffffffffffffffffff167f8be0079c531659141344cd1fd0a4f28419497f9722a3daafe3b4186f6b6457e060405160405180910390a35050565b7f4e487b7100000000000000000000000000000000000000000000000000000000600052601160045260246000fd5b60008160011c9050919050565b6000808291508390505b60018511156200021e57808604811115620001f657620001f562000190565b5b6001851615620002065780820291505b80810290506200021685620001bf565b9450620001d6565b94509492505050565b6000826200023957600190506200030c565b816200024957600090506200030c565b81600181146200026257600281146200026d57620002a3565b60019150506200030c565b60ff84111562000282576200028162000190565b5b8360020a9150848211156200029c576200029b62000190565b5b506200030c565b5060208310610133831016604e8410600b8410161715620002dd5782820a905083811115620002d757620002d662000190565b5b6200030c565b620002ec8484846001620001cc565b9250905081840481111562000306576200030562000190565b5b81810290505b9392505050565b6000819050919050565b60006200032a8262000313565b9150620003378362000313565b9250620003667fffffffffffffffffffffffffffffffffffffffffffffffffffffffffffffffff848462000227565b905092915050565b60006200037b8262000313565b9150620003888362000313565b9250828202620003988162000313565b91508282048414831517620003b257620003b162000190565b5b5092915050565b6000604051905090565b600080fd5b600080fd5b600080fd5b600080fd5b6000601f19601f8301169050919050565b7f4e487b7100000000000000000000000000000000000000000000000000000000600052604160045260246000fd5b6200042282620003d7565b810181811067ffffffffffffffff82111715620004445762000443620003e8565b5b80604052505050565b600062000459620003b9565b905062000467828262000417565b919050565b600067ffffffffffffffff8211156200048a5762000489620003e8565b5b6200049582620003d7565b9050602081019050919050565b60005b83811015620004c2578082015181840152602081019050620004a5565b60008484015250505050565b6000620004e5620004df846200046c565b6200044d565b905082815260208101848484011115620005045762000503620003d2565b5b62000511848285620004a2565b509392505050565b600082601f830112620005315762000530620003cd565b5b815162000543848260208601620004ce565b91505092915050565b60008060408385031215620005665762000565620003c3565b5b600083015167ffffffffffffffff811115620005875762000586620003c8565b5b620005958582860162000519565b925050602083015167ffffffffffffffff811115620005b957620005b8620003c8565b5b620005c78582860162000519565b9150509250929050565b600081519050919050565b7f4e487b7100000000000000000000000000000000000000000000000000000000600052602260045260246000fd5b600060028204905060018216806200062457607f821691505b6020821081036200063a5762000639620005dc565b5b50919050565b60008190508160005260206000209050919050565b60006020601f8301049050919050565b600082821b905092915050565b600060088302620006a47fffffffffffffffffffffffffffffffffffffffffffffffffffffffffffffffff8262000665565b620006b0868362000665565b95508019841693508086168417925050509392505050565b6000819050919050565b6000620006f3620006ed620006e78462000313565b620006c8565b62000313565b9050919050565b6000819050919050565b6200070f83620006d2565b620007276200071e82620006fa565b84845462000672565b825550505050565b600090565b6200073e6200072f565b6200074b81848462000704565b505050565b5b8181101562000773576200076760008262000734565b60018101905062000751565b5050565b601f821115620007c2576200078c8162000640565b620007978462000655565b81016020851015620007a7578190505b620007bf620007b68562000655565b83018262000750565b50505b505050565b600082821c905092915050565b6000620007e760001984600802620007c7565b1980831691505092915050565b6000620008028383620007d4565b9150826002028217905092915050565b6200081d82620005d1565b67ffffffffffffffff811115620008395762000838620003e8565b5b6200084582546200060b565b6200085282828562000777565b600060209050601f8311600181146200088a576000841562000875578287015190505b620008818582620007f4565b865550620008f1565b601f1984166200089a8662000640565b60005b82811015620008c4578489015182556001820191506020850194506020810190506200089d565b86831015620008e45784890151620008e0601f891682620007d4565b8355505b6001600288020188555050505b505050505050565b613f4380620009096000396000f3fe608060405234801561001057600080fd5b506004361061018e5760003560e01c806395d89b41116100de578063b68967e211610097578063dd62ed3e11610071578063dd62ed3e14610500578063f143532614610530578063f2fde38b14610560578063fee207e61461057c5761018e565b8063b68967e214610470578063c76d0845146104a0578063cb0e0d7d146104d05761018e565b806395d89b411461035f57806396bf47411461037d578063a457c2d7146103b0578063a8723114146103e0578063a9059cbb14610410578063b45c0fdf146104405761018e565b806337ba95231161014b5780637042f36b116101255780637042f36b146102e957806370a0823114610307578063715018a6146103375780638da5cb5b146103415761018e565b806337ba95231461027d578063395093511461029b57806363ec508f146102cb5761018e565b806306fdde0314610193578063095ea7b3146101b157806318160ddd146101e157806323b872dd146101ff5780632a2d0c471461022f578063313ce5671461025f575b600080fd5b61019b6105ac565b6040516101a891906121e9565b60405180910390f35b6101cb60048036038101906101c691906122b3565b61063e565b6040516101d8919061230e565b60405180910390f35b6101e9610661565b6040516101f69190612338565b60405180910390f35b61021960048036038101906102149190612353565b61066b565b604051610226919061230e565b60405180910390f35b610249600480360381019061024491906123a6565b61069a565b60405161025691906123e2565b60405180910390f35b6102676106cd565b6040516102749190612419565b60405180910390f35b6102856106d6565b6040516102929190612506565b60405180910390f35b6102b560048036038101906102b091906122b3565b610762565b6040516102c2919061230e565b60405180910390f35b6102d3610799565b6040516102e09190612537565b60405180910390f35b6102f161079e565b6040516102fe9190612338565b60405180910390f35b610321600480360381019061031c9190612552565b6107a4565b60405161032e9190612338565b60405180910390f35b61033f6107ec565b005b610349610800565b60405161035691906123e2565b60405180910390f35b61036761082a565b60405161037491906121e9565b60405180910390f35b610397600480360381019061039291906125ab565b6108bc565b6040516103a794939291906125d8565b60405180910390f35b6103ca60048036038101906103c591906122b3565b610974565b6040516103d7919061230e565b60405180910390f35b6103fa60048036038101906103f591906125ab565b6109eb565b6040516104079190612683565b60405180910390f35b61042a600480360381019061042591906122b3565b610a1e565b604051610437919061230e565b60405180910390f35b61045a6004803603810190610455919061269e565b610a41565b604051610467919061230e565b60405180910390f35b61048a60048036038101906104859190612988565b610a70565b604051610497919061230e565b60405180910390f35b6104ba60048036038101906104b591906125ab565b610df0565b6040516104c79190612ba6565b60405180910390f35b6104ea60048036038101906104e59190612552565b610f39565b6040516104f79190612338565b60405180910390f35b61051a60048036038101906105159190612bc8565b610f51565b6040516105279190612338565b60405180910390f35b61054a600480360381019061054591906123a6565b610fd8565b6040516105579190612537565b60405180910390f35b61057a60048036038101906105759190612552565b611016565b005b61059660048036038101906105919190612dc9565b611099565b6040516105a3919061230e565b60405180910390f35b6060600380546105bb90612e67565b80601f01602080910402602001604051908101604052809291908181526020018280546105e790612e67565b80156106345780601f1061060957610100808354040283529160200191610634565b820191906000526020600020905b81548152906001019060200180831161061757829003601f168201915b5050505050905090565b60008061064961133a565b9050610656818585611342565b600191505092915050565b6000600254905090565b60008061067661133a565b905061068385828561150b565b61068e858585611597565b60019150509392505050565b600a6020528060005260406000206000915054906101000a900473ffffffffffffffffffffffffffffffffffffffff1681565b60006012905090565b6060600980548060200260200160405190810160405280929190818152602001828054801561075857602002820191906000526020600020906000905b82829054906101000a900467ffffffffffffffff1667ffffffffffffffff16815260200190600801906020826007010492830192600103820291508084116107135790505b5050505050905090565b60008061076d61133a565b905061078e81858561077f8589610f51565b6107899190612ec7565b611342565b600191505092915050565b600181565b600c5481565b60008060008373ffffffffffffffffffffffffffffffffffffffff1673ffffffffffffffffffffffffffffffffffffffff168152602001908152602001600020549050919050565b6107f4611816565b6107fe6000611894565b565b6000600560009054906101000a900473ffffffffffffffffffffffffffffffffffffffff16905090565b60606004805461083990612e67565b80601f016020809104026020016040519081016040528092919081815260200182805461086590612e67565b80156108b25780601f10610887576101008083540402835291602001916108b2565b820191906000526020600020905b81548152906001019060200180831161089557829003601f168201915b5050505050905090565b60076020528060005260406000206000915090508060000154908060010154908060020154908060040180546108f190612e67565b80601f016020809104026020016040519081016040528092919081815260200182805461091d90612e67565b801561096a5780601f1061093f5761010080835404028352916020019161096a565b820191906000526020600020905b81548152906001019060200180831161094d57829003601f168201915b5050505050905084565b60008061097f61133a565b9050600061098d8286610f51565b9050838110156109d2576040517f08c379a00000000000000000000000000000000000000000000000000000000081526004016109c990612f6d565b60405180910390fd5b6109df8286868403611342565b60019250505092915050565b60086020528060005260406000206000915054906101000a900473ffffffffffffffffffffffffffffffffffffffff1681565b600080610a2961133a565b9050610a36818585611597565b600191505092915050565b60066020528160005260406000206020528060005260406000206000915091509054906101000a900460ff1681565b60008073ffffffffffffffffffffffffffffffffffffffff16600860008867ffffffffffffffff1667ffffffffffffffff16815260200190815260200160002060009054906101000a900473ffffffffffffffffffffffffffffffffffffffff1673ffffffffffffffffffffffffffffffffffffffff1603610b27576040517f08c379a0000000000000000000000000000000000000000000000000000000008152600401610b1e90612fff565b60405180910390fd5b6000600760008867ffffffffffffffff1667ffffffffffffffff1681526020019081526020016000206000015403610b94576040517f08c379a0000000000000000000000000000000000000000000000000000000008152600401610b8b90613091565b60405180910390fd5b610be68686600860008a67ffffffffffffffff1667ffffffffffffffff16815260200190815260200160002060009054906101000a900473ffffffffffffffffffffffffffffffffffffffff1661195a565b600860008767ffffffffffffffff1667ffffffffffffffff16815260200190815260200160002060009054906101000a900473ffffffffffffffffffffffffffffffffffffffff1673ffffffffffffffffffffffffffffffffffffffff166367e1d50486868686600760008d67ffffffffffffffff1667ffffffffffffffff1681526020019081526020016000206040518663ffffffff1660e01b8152600401610c949594939291906134af565b602060405180830381865afa158015610cb1573d6000803e3d6000fd5b505050506040513d601f19601f82011682018060405250810190610cd5919061353e565b610d14576040517f08c379a0000000000000000000000000000000000000000000000000000000008152600401610d0b906135b7565b60405180910390fd5b6001600660003373ffffffffffffffffffffffffffffffffffffffff1673ffffffffffffffffffffffffffffffffffffffff16815260200190815260200160002060008867ffffffffffffffff1667ffffffffffffffff16815260200190815260200160002060006101000a81548160ff021916908315150217905550610de38686600860008a67ffffffffffffffff1667ffffffffffffffff16815260200190815260200160002060009054906101000a900473ffffffffffffffffffffffffffffffffffffffff16611a6a565b6001905095945050505050565b610df86120c0565b600760008367ffffffffffffffff1667ffffffffffffffff1681526020019081526020016000206040518060a001604052908160008201548152602001600182015481526020016002820154815260200160038201805480602002602001604051908101604052809291908181526020018280548015610e9757602002820191906000526020600020905b815481526020019060010190808311610e83575b50505050508152602001600482018054610eb090612e67565b80601f0160208091040260200160405190810160405280929190818152602001828054610edc90612e67565b8015610f295780601f10610efe57610100808354040283529160200191610f29565b820191906000526020600020905b815481529060010190602001808311610f0c57829003601f168201915b5050505050815250509050919050565b600b6020528060005260406000206000915090505481565b6000600160008473ffffffffffffffffffffffffffffffffffffffff1673ffffffffffffffffffffffffffffffffffffffff16815260200190815260200160002060008373ffffffffffffffffffffffffffffffffffffffff1673ffffffffffffffffffffffffffffffffffffffff16815260200190815260200160002054905092915050565b60098181548110610fe857600080fd5b9060005260206000209060049182820401919006600802915054906101000a900467ffffffffffffffff1681565b61101e611816565b600073ffffffffffffffffffffffffffffffffffffffff168173ffffffffffffffffffffffffffffffffffffffff160361108d576040517f08c379a000000000000000000000000000000000000000000000000000000000815260040161108490613649565b60405180910390fd5b61109681611894565b50565b60006110a3611816565b600073ffffffffffffffffffffffffffffffffffffffff16600860008667ffffffffffffffff1667ffffffffffffffff16815260200190815260200160002060009054906101000a900473ffffffffffffffffffffffffffffffffffffffff1673ffffffffffffffffffffffffffffffffffffffff16036111755760098490806001815401808255809150506001900390600052602060002090600491828204019190066008029091909190916101000a81548167ffffffffffffffff021916908367ffffffffffffffff1602179055505b8160600151600760008667ffffffffffffffff1667ffffffffffffffff16815260200190815260200160002060030190805190602001906111b79291906120ef565b508160400151600760008667ffffffffffffffff1667ffffffffffffffff168152602001908152602001600020600201819055508160800151600760008667ffffffffffffffff1667ffffffffffffffff168152602001908152602001600020600401908161122691906137f6565b508160200151600760008667ffffffffffffffff1667ffffffffffffffff168152602001908152602001600020600101819055508160000151600760008667ffffffffffffffff1667ffffffffffffffff168152602001908152602001600020600001819055508160800151600760008667ffffffffffffffff1667ffffffffffffffff16815260200190815260200160002060040190816112c891906137f6565b5082600860008667ffffffffffffffff1667ffffffffffffffff16815260200190815260200160002060006101000a81548173ffffffffffffffffffffffffffffffffffffffff021916908373ffffffffffffffffffffffffffffffffffffffff160217905550600190509392505050565b600033905090565b600073ffffffffffffffffffffffffffffffffffffffff168373ffffffffffffffffffffffffffffffffffffffff16036113b1576040517f08c379a00000000000000000000000000000000000000000000000000000000081526004016113a89061393a565b60405180910390fd5b600073ffffffffffffffffffffffffffffffffffffffff168273ffffffffffffffffffffffffffffffffffffffff1603611420576040517f08c379a0000000000000000000000000000000000000000000000000000000008152600401611417906139cc565b60405180910390fd5b80600160008573ffffffffffffffffffffffffffffffffffffffff1673ffffffffffffffffffffffffffffffffffffffff16815260200190815260200160002060008473ffffffffffffffffffffffffffffffffffffffff1673ffffffffffffffffffffffffffffffffffffffff168152602001908152602001600020819055508173ffffffffffffffffffffffffffffffffffffffff168373ffffffffffffffffffffffffffffffffffffffff167f8c5be1e5ebec7d5bd14f71427d1e84f3dd0314c0f7b2291e5b200ac8c7c3b925836040516114fe9190612338565b60405180910390a3505050565b60006115178484610f51565b90507fffffffffffffffffffffffffffffffffffffffffffffffffffffffffffffffff81146115915781811015611583576040517f08c379a000000000000000000000000000000000000000000000000000000000815260040161157a90613a38565b60405180910390fd5b6115908484848403611342565b5b50505050565b600073ffffffffffffffffffffffffffffffffffffffff168373ffffffffffffffffffffffffffffffffffffffff1603611606576040517f08c379a00000000000000000000000000000000000000000000000000000000081526004016115fd90613aca565b60405180910390fd5b600073ffffffffffffffffffffffffffffffffffffffff168273ffffffffffffffffffffffffffffffffffffffff1603611675576040517f08c379a000000000000000000000000000000000000000000000000000000000815260040161166c90613b5c565b60405180910390fd5b611680838383611cc5565b60008060008573ffffffffffffffffffffffffffffffffffffffff1673ffffffffffffffffffffffffffffffffffffffff16815260200190815260200160002054905081811015611706576040517f08c379a00000000000000000000000000000000000000000000000000000000081526004016116fd90613bee565b60405180910390fd5b8181036000808673ffffffffffffffffffffffffffffffffffffffff1673ffffffffffffffffffffffffffffffffffffffff16815260200190815260200160002081905550816000808573ffffffffffffffffffffffffffffffffffffffff1673ffffffffffffffffffffffffffffffffffffffff16815260200190815260200160002060008282546117999190612ec7565b925050819055508273ffffffffffffffffffffffffffffffffffffffff168473ffffffffffffffffffffffffffffffffffffffff167fddf252ad1be2c89b69c2b068fc378daa952ba7f163c4a11628f55a4df523b3ef846040516117fd9190612338565b60405180910390a3611810848484611d83565b50505050565b61181e61133a565b73ffffffffffffffffffffffffffffffffffffffff1661183c610800565b73ffffffffffffffffffffffffffffffffffffffff1614611892576040517f08c379a000000000000000000000000000000000000000000000000000000000815260040161188990613c5a565b60405180910390fd5b565b6000600560009054906101000a900473ffffffffffffffffffffffffffffffffffffffff16905081600560006101000a81548173ffffffffffffffffffffffffffffffffffffffff021916908373ffffffffffffffffffffffffffffffffffffffff1602179055508173ffffffffffffffffffffffffffffffffffffffff168173ffffffffffffffffffffffffffffffffffffffff167f8be0079c531659141344cd1fd0a4f28419497f9722a3daafe3b4186f6b6457e060405160405180910390a35050565b60006119ed838373ffffffffffffffffffffffffffffffffffffffff16639f442afa6040518163ffffffff1660e01b8152600401602060405180830381865afa1580156119ab573d6000803e3d6000fd5b505050506040513d601f19601f820116820180604052508101906119cf9190613c8f565b815181106119e0576119df613cbc565b5b6020026020010151611d88565b90508073ffffffffffffffffffffffffffffffffffffffff16611a0e61133a565b73ffffffffffffffffffffffffffffffffffffffff1614611a64576040517f08c379a0000000000000000000000000000000000000000000000000000000008152600401611a5b90613d5d565b60405180910390fd5b50505050565b600167ffffffffffffffff168367ffffffffffffffff16148015611ad457506000600b6000611a9761133a565b73ffffffffffffffffffffffffffffffffffffffff1673ffffffffffffffffffffffffffffffffffffffff16815260200190815260200160002054145b611b13576040517f08c379a0000000000000000000000000000000000000000000000000000000008152600401611b0a90613def565b60405180910390fd5b6000828273ffffffffffffffffffffffffffffffffffffffff16639f442afa6040518163ffffffff1660e01b8152600401602060405180830381865afa158015611b61573d6000803e3d6000fd5b505050506040513d601f19601f82011682018060405250810190611b859190613c8f565b81518110611b9657611b95613cbc565b5b60200260200101519050600073ffffffffffffffffffffffffffffffffffffffff16600a600083815260200190815260200160002060009054906101000a900473ffffffffffffffffffffffffffffffffffffffff1673ffffffffffffffffffffffffffffffffffffffff1603611cbf57611c1a611c1261133a565b600c54611daa565b80600b6000611c2761133a565b73ffffffffffffffffffffffffffffffffffffffff1673ffffffffffffffffffffffffffffffffffffffff16815260200190815260200160002081905550611c6d61133a565b600a600083815260200190815260200160002060006101000a81548173ffffffffffffffffffffffffffffffffffffffff021916908373ffffffffffffffffffffffffffffffffffffffff1602179055505b50505050565b60011515600660008473ffffffffffffffffffffffffffffffffffffffff1673ffffffffffffffffffffffffffffffffffffffff1681526020019081526020016000206000600167ffffffffffffffff1667ffffffffffffffff16815260200190815260200160002060009054906101000a900460ff16151514611d7e576040517f08c379a0000000000000000000000000000000000000000000000000000000008152600401611d7590613e81565b60405180910390fd5b505050565b505050565b6000611da3611d9e611d9984611f09565b612055565b6120b2565b9050919050565b600073ffffffffffffffffffffffffffffffffffffffff168273ffffffffffffffffffffffffffffffffffffffff1603611e19576040517f08c379a0000000000000000000000000000000000000000000000000000000008152600401611e1090613eed565b60405180910390fd5b611e2560008383611cc5565b8060026000828254611e379190612ec7565b92505081905550806000808473ffffffffffffffffffffffffffffffffffffffff1673ffffffffffffffffffffffffffffffffffffffff1681526020019081526020016000206000828254611e8c9190612ec7565b925050819055508173ffffffffffffffffffffffffffffffffffffffff16600073ffffffffffffffffffffffffffffffffffffffff167fddf252ad1be2c89b69c2b068fc378daa952ba7f163c4a11628f55a4df523b3ef83604051611ef19190612338565b60405180910390a3611f0560008383611d83565b5050565b600081905060087eff00ff00ff00ff00ff00ff00ff00ff00ff00ff00ff00ff00ff00ff00ff00ff8216901b60087fff00ff00ff00ff00ff00ff00ff00ff00ff00ff00ff00ff00ff00ff00ff00ff008316901c17905060107dffff0000ffff0000ffff0000ffff0000ffff0000ffff0000ffff0000ffff8216901b60107fffff0000ffff0000ffff0000ffff0000ffff0000ffff0000ffff0000ffff00008316901c17905060207bffffffff00000000ffffffff00000000ffffffff00000000ffffffff8216901b60207fffffffff00000000ffffffff00000000ffffffff00000000ffffffff000000008316901c179050604077ffffffffffffffff0000000000000000ffffffffffffffff8216901b60407fffffffffffffffff0000000000000000ffffffffffffffff00000000000000008316901c179050608081901b608082901c179050919050565b6060602067ffffffffffffffff811115612072576120716126e3565b5b6040519080825280601f01601f1916602001820160405280156120a45781602001600182028036833780820191505090505b509050816020820152919050565b600060148201519050919050565b6040518060a0016040528060008152602001600081526020016000815260200160608152602001606081525090565b82805482825590600052602060002090810192821561212b579160200282015b8281111561212a57825182559160200191906001019061210f565b5b509050612138919061213c565b5090565b5b8082111561215557600081600090555060010161213d565b5090565b600081519050919050565b600082825260208201905092915050565b60005b83811015612193578082015181840152602081019050612178565b60008484015250505050565b6000601f19601f8301169050919050565b60006121bb82612159565b6121c58185612164565b93506121d5818560208601612175565b6121de8161219f565b840191505092915050565b6000602082019050818103600083015261220381846121b0565b905092915050565b6000604051905090565b600080fd5b600080fd5b600073ffffffffffffffffffffffffffffffffffffffff82169050919050565b600061224a8261221f565b9050919050565b61225a8161223f565b811461226557600080fd5b50565b60008135905061227781612251565b92915050565b6000819050919050565b6122908161227d565b811461229b57600080fd5b50565b6000813590506122ad81612287565b92915050565b600080604083850312156122ca576122c9612215565b5b60006122d885828601612268565b92505060206122e98582860161229e565b9150509250929050565b60008115159050919050565b612308816122f3565b82525050565b600060208201905061232360008301846122ff565b92915050565b6123328161227d565b82525050565b600060208201905061234d6000830184612329565b92915050565b60008060006060848603121561236c5761236b612215565b5b600061237a86828701612268565b935050602061238b86828701612268565b925050604061239c8682870161229e565b9150509250925092565b6000602082840312156123bc576123bb612215565b5b60006123ca8482850161229e565b91505092915050565b6123dc8161223f565b82525050565b60006020820190506123f760008301846123d3565b92915050565b600060ff82169050919050565b612413816123fd565b82525050565b600060208201905061242e600083018461240a565b92915050565b600081519050919050565b600082825260208201905092915050565b6000819050602082019050919050565b600067ffffffffffffffff82169050919050565b61247d81612460565b82525050565b600061248f8383612474565b60208301905092915050565b6000602082019050919050565b60006124b382612434565b6124bd818561243f565b93506124c883612450565b8060005b838110156124f95781516124e08882612483565b97506124eb8361249b565b9250506001810190506124cc565b5085935050505092915050565b6000602082019050818103600083015261252081846124a8565b905092915050565b61253181612460565b82525050565b600060208201905061254c6000830184612528565b92915050565b60006020828403121561256857612567612215565b5b600061257684828501612268565b91505092915050565b61258881612460565b811461259357600080fd5b50565b6000813590506125a58161257f565b92915050565b6000602082840312156125c1576125c0612215565b5b60006125cf84828501612596565b91505092915050565b60006080820190506125ed6000830187612329565b6125fa6020830186612329565b6126076040830185612329565b818103606083015261261981846121b0565b905095945050505050565b6000819050919050565b600061264961264461263f8461221f565b612624565b61221f565b9050919050565b600061265b8261262e565b9050919050565b600061266d82612650565b9050919050565b61267d81612662565b82525050565b60006020820190506126986000830184612674565b92915050565b600080604083850312156126b5576126b4612215565b5b60006126c385828601612268565b92505060206126d485828601612596565b9150509250929050565b600080fd5b7f4e487b7100000000000000000000000000000000000000000000000000000000600052604160045260246000fd5b61271b8261219f565b810181811067ffffffffffffffff8211171561273a576127396126e3565b5b80604052505050565b600061274d61220b565b90506127598282612712565b919050565b600067ffffffffffffffff821115612779576127786126e3565b5b602082029050602081019050919050565b600080fd5b60006127a261279d8461275e565b612743565b905080838252602082019050602084028301858111156127c5576127c461278a565b5b835b818110156127ee57806127da888261229e565b8452602084019350506020810190506127c7565b5050509392505050565b600082601f83011261280d5761280c6126de565b5b813561281d84826020860161278f565b91505092915050565b600067ffffffffffffffff821115612841576128406126e3565b5b602082029050919050565b600061285f61285a84612826565b612743565b905080602084028301858111156128795761287861278a565b5b835b818110156128a2578061288e888261229e565b84526020840193505060208101905061287b565b5050509392505050565b600082601f8301126128c1576128c06126de565b5b60026128ce84828561284c565b91505092915050565b600067ffffffffffffffff8211156128f2576128f16126e3565b5b602082029050919050565b600061291061290b846128d7565b612743565b9050806040840283018581111561292a5761292961278a565b5b835b81811015612953578061293f88826128ac565b84526020840193505060408101905061292c565b5050509392505050565b600082601f830112612972576129716126de565b5b600261297f8482856128fd565b91505092915050565b600080600080600061014086880312156129a5576129a4612215565b5b60006129b388828901612596565b955050602086013567ffffffffffffffff8111156129d4576129d361221a565b5b6129e0888289016127f8565b94505060406129f1888289016128ac565b9350506080612a028882890161295d565b925050610100612a14888289016128ac565b9150509295509295909350565b612a2a8161227d565b82525050565b600081519050919050565b600082825260208201905092915050565b6000819050602082019050919050565b6000612a688383612a21565b60208301905092915050565b6000602082019050919050565b6000612a8c82612a30565b612a968185612a3b565b9350612aa183612a4c565b8060005b83811015612ad2578151612ab98882612a5c565b9750612ac483612a74565b925050600181019050612aa5565b5085935050505092915050565b600082825260208201905092915050565b6000612afb82612159565b612b058185612adf565b9350612b15818560208601612175565b612b1e8161219f565b840191505092915050565b600060a083016000830151612b416000860182612a21565b506020830151612b546020860182612a21565b506040830151612b676040860182612a21565b5060608301518482036060860152612b7f8282612a81565b91505060808301518482036080860152612b998282612af0565b9150508091505092915050565b60006020820190508181036000830152612bc08184612b29565b905092915050565b60008060408385031215612bdf57612bde612215565b5b6000612bed85828601612268565b9250506020612bfe85828601612268565b9150509250929050565b6000612c138261223f565b9050919050565b612c2381612c08565b8114612c2e57600080fd5b50565b600081359050612c4081612c1a565b92915050565b600080fd5b600080fd5b600080fd5b600067ffffffffffffffff821115612c7057612c6f6126e3565b5b612c798261219f565b9050602081019050919050565b82818337600083830152505050565b6000612ca8612ca384612c55565b612743565b905082815260208101848484011115612cc457612cc3612c50565b5b612ccf848285612c86565b509392505050565b600082601f830112612cec57612ceb6126de565b5b8135612cfc848260208601612c95565b91505092915050565b600060a08284031215612d1b57612d1a612c46565b5b612d2560a0612743565b90506000612d358482850161229e565b6000830152506020612d498482850161229e565b6020830152506040612d5d8482850161229e565b604083015250606082013567ffffffffffffffff811115612d8157612d80612c4b565b5b612d8d848285016127f8565b606083015250608082013567ffffffffffffffff811115612db157612db0612c4b565b5b612dbd84828501612cd7565b60808301525092915050565b600080600060608486031215612de257612de1612215565b5b6000612df086828701612596565b9350506020612e0186828701612c31565b925050604084013567ffffffffffffffff811115612e2257612e2161221a565b5b612e2e86828701612d05565b9150509250925092565b7f4e487b7100000000000000000000000000000000000000000000000000000000600052602260045260246000fd5b60006002820490506001821680612e7f57607f821691505b602082108103612e9257612e91612e38565b5b50919050565b7f4e487b7100000000000000000000000000000000000000000000000000000000600052601160045260246000fd5b6000612ed28261227d565b9150612edd8361227d565b9250828201905080821115612ef557612ef4612e98565b5b92915050565b7f45524332303a2064656372656173656420616c6c6f77616e63652062656c6f7760008201527f207a65726f000000000000000000000000000000000000000000000000000000602082015250565b6000612f57602583612164565b9150612f6282612efb565b604082019050919050565b60006020820190508181036000830152612f8681612f4a565b9050919050565b7f76616c696461746f72206973206e6f742073657420666f72207468697320726560008201527f7175657374206964000000000000000000000000000000000000000000000000602082015250565b6000612fe9602883612164565b9150612ff482612f8d565b604082019050919050565b6000602082019050818103600083015261301881612fdc565b9050919050565b7f7175657279206973206e6f742073657420666f7220746869732072657175657360008201527f7420696400000000000000000000000000000000000000000000000000000000602082015250565b600061307b602483612164565b91506130868261301f565b604082019050919050565b600060208201905081810360008301526130aa8161306e565b9050919050565b600082825260208201905092915050565b60006130cd82612a30565b6130d781856130b1565b93506130e283612a4c565b8060005b838110156131135781516130fa8882612a5c565b975061310583612a74565b9250506001810190506130e6565b5085935050505092915050565b600060029050919050565b600081905092915050565b6000819050919050565b6000602082019050919050565b61315681613120565b613160818461312b565b925061316b82613136565b8060005b8381101561319c5781516131838782612a5c565b965061318e83613140565b92505060018101905061316f565b505050505050565b600060029050919050565b600081905092915050565b6000819050919050565b600081905092915050565b6131d881613120565b6131e281846131c4565b92506131ed82613136565b8060005b8381101561321e5781516132058782612a5c565b965061321083613140565b9250506001810190506131f1565b505050505050565b600061323283836131cf565b60408301905092915050565b6000602082019050919050565b613254816131a4565b61325e81846131af565b9250613269826131ba565b8060005b8381101561329a5781516132818782613226565b965061328c8361323e565b92505060018101905061326d565b505050505050565b60008160001c9050919050565b6000819050919050565b60006132cc6132c7836132a2565b6132af565b9050919050565b600081549050919050565b60008190508160005260206000209050919050565b60006132ff82546132b9565b9050919050565b6000600182019050919050565b600061331e826132d3565b6133288185612a3b565b9350613333836132de565b8060005b8381101561336b57613348826132f3565b6133528882612a5c565b975061335d83613306565b925050600181019050613337565b5085935050505092915050565b60008190508160005260206000209050919050565b6000815461339a81612e67565b6133a48186612adf565b945060018216600081146133bf57600181146133d557613408565b60ff198316865281151560200286019350613408565b6133de85613378565b60005b83811015613400578154818901526001820191506020810190506133e1565b808801955050505b50505092915050565b600060a083016000808401549050613428816132b9565b6134356000870182612a21565b5060018401549050613446816132b9565b6134536020870182612a21565b5060028401549050613464816132b9565b6134716040870182612a21565b506003840185830360608701526134888382613313565b9250506004840185830360808701526134a1838261338d565b925050819250505092915050565b60006101408201905081810360008301526134ca81886130c2565b90506134d9602083018761314d565b6134e6606083018661324b565b6134f360e083018561314d565b8181036101208301526135068184613411565b90509695505050505050565b61351b816122f3565b811461352657600080fd5b50565b60008151905061353881613512565b92915050565b60006020828403121561355457613553612215565b5b600061356284828501613529565b91505092915050565b7f70726f6f6620726573706f6e7365206973206e6f742076616c69640000000000600082015250565b60006135a1601b83612164565b91506135ac8261356b565b602082019050919050565b600060208201905081810360008301526135d081613594565b9050919050565b7f4f776e61626c653a206e6577206f776e657220697320746865207a65726f206160008201527f6464726573730000000000000000000000000000000000000000000000000000602082015250565b6000613633602683612164565b915061363e826135d7565b604082019050919050565b6000602082019050818103600083015261366281613626565b9050919050565b60006020601f8301049050919050565b600082821b905092915050565b6000600883026136b67fffffffffffffffffffffffffffffffffffffffffffffffffffffffffffffffff82613679565b6136c08683613679565b95508019841693508086168417925050509392505050565b60006136f36136ee6136e98461227d565b612624565b61227d565b9050919050565b6000819050919050565b61370d836136d8565b613721613719826136fa565b848454613686565b825550505050565b600090565b613736613729565b613741818484613704565b505050565b5b818110156137655761375a60008261372e565b600181019050613747565b5050565b601f8211156137aa5761377b81613378565b61378484613669565b81016020851015613793578190505b6137a761379f85613669565b830182613746565b50505b505050565b600082821c905092915050565b60006137cd600019846008026137af565b1980831691505092915050565b60006137e683836137bc565b9150826002028217905092915050565b6137ff82612159565b67ffffffffffffffff811115613818576138176126e3565b5b6138228254612e67565b61382d828285613769565b600060209050601f831160018114613860576000841561384e578287015190505b61385885826137da565b8655506138c0565b601f19841661386e86613378565b60005b8281101561389657848901518255600182019150602085019450602081019050613871565b868310156138b357848901516138af601f8916826137bc565b8355505b6001600288020188555050505b505050505050565b7f45524332303a20617070726f76652066726f6d20746865207a65726f2061646460008201527f7265737300000000000000000000000000000000000000000000000000000000602082015250565b6000613924602483612164565b915061392f826138c8565b604082019050919050565b6000602082019050818103600083015261395381613917565b9050919050565b7f45524332303a20617070726f766520746f20746865207a65726f20616464726560008201527f7373000000000000000000000000000000000000000000000000000000000000602082015250565b60006139b6602283612164565b91506139c18261395a565b604082019050919050565b600060208201905081810360008301526139e5816139a9565b9050919050565b7f45524332303a20696e73756666696369656e7420616c6c6f77616e6365000000600082015250565b6000613a22601d83612164565b9150613a2d826139ec565b602082019050919050565b60006020820190508181036000830152613a5181613a15565b9050919050565b7f45524332303a207472616e736665722066726f6d20746865207a65726f20616460008201527f6472657373000000000000000000000000000000000000000000000000000000602082015250565b6000613ab4602583612164565b9150613abf82613a58565b604082019050919050565b60006020820190508181036000830152613ae381613aa7565b9050919050565b7f45524332303a207472616e7366657220746f20746865207a65726f206164647260008201527f6573730000000000000000000000000000000000000000000000000000000000602082015250565b6000613b46602383612164565b9150613b5182613aea565b604082019050919050565b60006020820190508181036000830152613b7581613b39565b9050919050565b7f45524332303a207472616e7366657220616d6f756e742065786365656473206260008201527f616c616e63650000000000000000000000000000000000000000000000000000602082015250565b6000613bd8602683612164565b9150613be382613b7c565b604082019050919050565b60006020820190508181036000830152613c0781613bcb565b9050919050565b7f4f776e61626c653a2063616c6c6572206973206e6f7420746865206f776e6572600082015250565b6000613c44602083612164565b9150613c4f82613c0e565b602082019050919050565b60006020820190508181036000830152613c7381613c37565b9050919050565b600081519050613c8981612287565b92915050565b600060208284031215613ca557613ca4612215565b5b6000613cb384828501613c7a565b91505092915050565b7f4e487b7100000000000000000000000000000000000000000000000000000000600052603260045260246000fd5b7f6164647265737320696e2070726f6f66206973206e6f7420612073656e64657260008201527f2061646472657373000000000000000000000000000000000000000000000000602082015250565b6000613d47602883612164565b9150613d5282613ceb565b604082019050919050565b60006020820190508181036000830152613d7681613d3a565b9050919050565b7f70726f6f662063616e206e6f74206265207375626d6974746564206d6f72652060008201527f7468616e206f6e63650000000000000000000000000000000000000000000000602082015250565b6000613dd9602983612164565b9150613de482613d7d565b604082019050919050565b60006020820190508181036000830152613e0881613dcc565b9050919050565b7f6f6e6c79206964656e7469746965732077686f2070726f76696465642070726f60008201527f6f662061726520616c6c6f77656420746f207265636569766520746f6b656e73602082015250565b6000613e6b604083612164565b9150613e7682613e0f565b604082019050919050565b60006020820190508181036000830152613e9a81613e5e565b9050919050565b7f45524332303a206d696e7420746f20746865207a65726f206164647265737300600082015250565b6000613ed7601f83612164565b9150613ee282613ea1565b602082019050919050565b60006020820190508181036000830152613f0681613eca565b905091905056fea2646970667358221220d9c40a1cc2c55df253ffcd17de85ecfb490cb9922a3e374ceb2277040f60074e64736f6c63430008110033",
  "linkReferences": {},
  "deployedLinkReferences": {}
}